:020000040000FA
:040000000DEF00F010
:0400080013EF13F0EF
:06001800FF0002EF13F0EF
:1016000000C6200000482600000000BC26B2269E2E
:101610002600000000000000000000662500000019
:10162000000000C6260000446576696365205465A5
:101630006D70657261747572653A20256443200D82
:031640000A00009D
:1016440020C538F521C539F522C53AF523C53BF542
:1016540024C53CF525C53DF526C53EF527C53FF512
:101664003FBE37EF0BF03AEF0BF0010E3BEF0BF000
:10167400000E366E376A36503710D8B444EF0BF08C
:1016840046EF0BF056EF0BF03F1E3E1E3D1E3C1E78
:101694003B1E3A1E391E386C000E39223A223B2278
:1016A4003C223D223E223F2205017DBF5CEF0BF030
:1016B4005EEF0BF05FEF0BF07E937DBF6CEF0BF0F2
:1016C4007D5106E17C05D8B06AEF0BF06CEF0BF0AE
:1016D40072EF0BF0000E336E010E326E76EF0BF0EC
:1016E4007CC532F57DC533F57AC534F57BC535F552
:1016F40036503710D8A481EF0BF083EF0BF08AEF4C
:101704000BF07EA588EF0BF08AEF0BF08DEF0BF05A
:101714003406D8A03506000E416E1F0E406E000E32
:10172400A56F11EF0CF04006D8A04106860E4024A8
:10173400D96E050E4120DA6E38C501F539C502F5BA
:101744003AC503F53BC504F53CC505F53DC506F5AD
:101754003EC507F53FC508F50A0E096E000E0A6E70
:10176400000E0B6E000E0C6E000E0D6E000E0E6E53
:10177400000E0F6E000E106E53EC0EF001C528F52E
:1017840002C529F503C52AF504C52BF505C52CF5B5
:1017940006C52DF507C52EF508C52FF528C513F583
:1017A4002AC514F52CEC12F01350300FDF6E3206FC
:1017B400D8A033063406D8A0350638C501F539C596
:1017C40002F53AC503F53BC504F53CC505F53DC531
:1017D40006F53EC507F53FC508F50A0E096E000E6D
:1017E4000A6E000E0B6E000E0C6E000E0D6E000ED7
:1017F4000E6E000E0F6E000E106E8FEC0DF001C514
:1018040038F502C539F503C53AF504C53BF505C5F8
:101814003CF506C53DF507C53EF508C53FF541BE97
:101824001CEF0CF0415008E14004D8A01CEF0CF070
:101834001EEF0CF04FEF0CF0385039103A103B10FB
:101844003C103D103E103F10D8A42BEF0CF02DEFB0
:101854000CF095EF0BF033BE3AEF0CF0335006E189
:101864003204D8B038EF0CF03AEF0CF095EF0BF0EF
:1018740035BE45EF0CF0355008E13404D8A045EFEF
:101884000CF047EF0CF04FEF0CF005017EB34DEF79
:101894000CF04FEF0CF095EF0BF036503710D8A446
:1018A40056EF0CF058EF0CF060EF0CF005017EA53C
:1018B4005EEF0CF060EF0CF07FEF0CF04006D8A068
:1018C400410636503710D8A46AEF0CF06CEF0CF0D8
:1018D40072EF0CF0000E316E2B0E306E76EF0CF0C2
:1018E400000E316E2D0E306E860E4024D96E050E1C
:1018F4004120DA6E6100C0F4DFF41EC513F51FC584
:1019040014F5860E4024156E050E4120166E34C55E
:1019140017F535C518F500EC10F013C51EF514C500
:101924001FF51200610010F5D9F4610014F5DAF422
:10193400DEC4F6F4DDC4F7F4F86A0800F550250AAD
:10194400D8A4A7EF0CF0A9EF0CF06EEF0DF0610036
:1019540010F5D9F4610014F5DAF4DE2A000EDD2264
:10196400000E05017B6F000E7A6F7AC57EF57BC58C
:101974007FF57C697D69610010F5D9F4610014F587
:10198400DAF4DEC4F6F4DDC4F7F4F86A0800F550BE
:10199400640AD8B4D0EF0CF0D2EF0CF0E7EF0CF0FF
:1019A400610010F5D9F4610014F5DAF4DEC4F6F43C
:1019B400DDC4F7F4F86A0800F550690AD8A4E5EF25
:1019C4000CF0E7EF0CF031EF0DF0610010F5D9F4F5
:1019D400610014F5DAF4DE2A000EDD22610018F548
:1019E400D9F461001CF5DAF461007CF348F5020EC9
:1019F400DE2661007CF349F5000EDD22610020F54E
:101A0400D9F4610024F5DAF4610078F34AF5610051
:101A140074F34BF5000E4BBEFF0E4C6E4D6E4E6EC6
:101A24004F6E506E516E42C51EF543C51FF54AC533
:101A340020F54BC521F54CC522F54DC523F54EC502
:101A440024F54FC525F550C526F551C527F522ECDB
:101A54000BF01EC542F51FC543F58EEF0DF0610076
:101A640010F5D9F4610014F5DAF4DEC4F6F4DDC43B
:101A7400F7F4F86A0800F550250AD8A444EF0DF0ED
:101A840046EF0DF05FEF0DF0610010F5D9F4610041
:101A940014F5DAF4DE2A000EDD22000E046E250EA3
:101AA400036E42C505F543C506F5BCEC10F0000E07
:101AB400436E010E426E8EEF0DF0610010F5D9F405
:101AC400610014F5DAF4DE2A000EDD22000E436E06
:101AD400000E426E8EEF0DF0610010F5D9F4610036
:101AE40014F5DAF4DEC4F6F4DDC4F7F4F86A080099
:101AF400F550036E046A42C505F543C506F5BCEC12
:101B040010F0610010F5D9F4610014F5DAF4DE2A5E
:101B1400000EDD2259EF0DF01200000E126E10BE01
:101B240098EF0DF096EF0DF0AAEF0DF0101E0F1EBA
:101B34000E1E0D1E0C1E0B1E0A1E096C000E0A2220
:101B44000B220C220D220E220F221022010E126EE5
:101B540008BEB1EF0DF0AFEF0DF0C3EF0DF0081EAE
:101B6400071E061E051E041E031E021E016C000E27
:101B74000222032204220522062207220822010E41
:101B8400121A21EE13F1070EDE6AE806FDE209508F
:101B94000A100B100C100D100E100F101010D8B4EA
:101BA400D6EF0DF0D8EF0DF02AEF0EF0010E116E06
:101BB400E6EF0DF0D89009360A360B360C360D36A2
:101BC4000E360F361036112A10AEEBEF0DF0EDEF96
:101BD4000DF0DCEF0DF0D8901336143615361636AA
:101BE4001736183619361A360950015C0A5002584D
:101BF4000B5003580C5004580D5005580E500658FD
:101C04000F50075810500858D8A00BEF0EF00DEFE6
:101C14000EF01EEF0EF00950015E0A50025A0B50EE
:101C2400035A0C50045A0D50055A0E50065A0F50C0
:101C3400075A1050085A1380D89010320F320E32BF
:101C44000D320C320B320A320932112EEDEF0DF047
:101C54001250D8B430EF0EF032EF0EF042EF0EF027
:101C64001A1E191E181E171E161E151E141E136C7E
:101C7400000E1422152216221722182219221A22C3
:101C840013C501F514C502F515C503F516C504F50C
:101C940017C505F518C506F519C507F51AC508F5DC
:101CA4001200000E126E08BE5CEF0EF05AEF0EF03A
:101CB4006EEF0EF0081E071E061E051E041E031EF0
:101CC400021E016C000E02220322042205220622B7
:101CD40007220822010E126E10BE75EF0EF073EF8C
:101CE4000EF085EF0EF0101E0F1E0E1E0D1E0C1EA4
:101CF4000B1E0A1E096C000E0A220B220C220D2256
:101D04000E220F22102209500A100B100C100D1075
:101D14000E100F101010D8B492EF0EF094EF0EF0D6
:101D2400DCEF0EF0010E116EA2EF0EF0D890093622
:101D34000A360B360C360D360E360F361036112A8F
:101D440010AEA7EF0EF0A9EF0EF098EF0EF00950C9
:101D5400015C0A5002580B5003580C5004580D50A3
:101D640005580E5006580F50075810500858D8A060
:101D7400BEEF0EF0C0EF0EF0D0EF0EF00950015E92
:101D84000A50025A0B50035A0C50045A0D50055A6B
:101D94000E50065A0F50075A1050085AD890103255
:101DA4000F320E320D320C320B320A320932112E3E
:101DB400A9EF0EF01250D8B4E2EF0EF0E4EF0EF0FB
:101DC400F4EF0EF0081E071E061E051E041E031E59
:101DD400021E016C000E02220322042205220622A6
:101DE4000722082201C501F502C502F503C503F562
:101DF40004C504F505C505F506C506F507C507F5CB
:101E040008C508F51200DDEC12F02A0E016E000E72
:101E1400026E2C0E036E000E046E83EC12F001C5EC
:101E2400A8F502C5A9F52E0E016E000E026E2C0E49
:101E3400036E000E046E83EC12F001C5A6F502C514
:101E4400A7F5D68E3C0E0301EC6F030000F030ECD6
:101E540013F001C5C9F502C5CAF5C9C501F5CAC55E
:101E640002F5036AA8C504F5A9C505F5066A05BE09
:101E74000606B6EC11F001C5CBF502C5CCF503C5D9
:101E8400CDF5CBC501F5CCC502F5CDC503F5000EE6
:101E9400046E010E056E000E066E8CEC0FF001C58B
:101EA400CBF502C5CCF503C5CDF5A6C5C6F5A7C5CA
:101EB400C7F50501C86BC7BFC869CB51C625CB6F31
:101EC400CC51C721CC6FCD51C821CD6FCBC501F505
:101ED400CCC502F5CDC503F50A0E046E000E056EE1
:101EE400000E066E8CEC0FF001C5CBF502C5CCF5E7
:101EF40003C5CDF5270E5A6E160E5B6ECBC55CF589
:101F0400CCC55DF5CDC55EF5C9EC12F027EF0FF039
:101F14000DEF00F0000E086E06BE95EF0FF093EF84
:101F24000FF09DEF0FF0061E051E046C000E052237
:101F34000622010E086E03BEA4EF0FF0A2EF0FF00D
:101F4400ACEF0FF0031E021E016C000E02220322EE
:101F5400010E081A000E096E000E0A6E000E0B6EBA
:101F6400045005100610D8B4BAEF0FF0BCEF0FF010
:101F7400EBEF0FF0010E076EC5EF0FF0D8900436AB
:101F840005360636072A06AECAEF0FF0CCEF0FF07F
:101F9400C0EF0FF0D89009360A360B360450015CB6
:101FA4000550025806500358D8A0DBEF0FF0DDEFC0
:101FB4000FF0E4EF0FF00450015E0550025A065092
:101FC400035A0980D890063205320432072ECCEF2A
:101FD4000FF00850D8B4F1EF0FF0F3EF0FF0F9EF72
:101FE4000FF00B1E0A1E096C000E0A220B2209C5F3
:101FF40001F50AC502F50BC503F5120005017EA122
:1020040006EF10F008EF10F012EF10F015C50CF504
:1020140016C50DF513C50EF514C50FF50AEC12F02F
:1020240018BE17EF10F019EF10F01FEF10F017C5DE
:102034001CF518C51DF523EF10F0000E1D6E000EE3
:102044001C6E000E1B6E000E1A6E35EF10F0000EA3
:10205400046E200E036E13C505F514C506F5BCEC1D
:1020640010F01A4A1B2A1C501A5C1B50800A196E65
:102074001D50800A1958D8A042EF10F044EF10F018
:1020840029EF10F005017EB14AEF10F04CEF10F08B
:1020940056EF10F015C50CF516C50DF513C50EF564
:1020A40014C50FF50AEC12F015C501F516C502F5B5
:1020B4004CEC12F01C500124136E1D500220146EBF
:1020C4001200AC90000E016E000E026E4AEC13F08A
:1020D400AC92000E016E000E026E45EC13F0AC944F
:1020E400000E016E000E026E54EC13F0AC96000E5E
:1020F400016E000E026E40EC13F0000E0201A16F9F
:10210400000EA26F000EA36F000EA46F000EA56F49
:10211400000EA66F000EA76F000EA86F000EA96F29
:10212400000EAA6F300EAB6F800EAC6F000EAD6F59
:10213400CF0EAE6F000EAF6F000EB06F000EB16F1A
:10214400000EB26F000EB36F000E016E000E026E31
:1021540059EC13F0000E016E000E026E4FEC13F0FA
:10216400000E016E000E026E5EEC13F0000E05010F
:10217400806F120005500610D8B4C3EF10F0C5EFFD
:1021840010F0CEEF10F005500610D8A4CCEF10F0EC
:10219400CEEF10F0D3EF10F003503BEC13F006EF4A
:1021A40011F020EE04F00550D9260650DA22DE5054
:1021B400DE10D8B4E0EF10F0E2EF10F0FDEF10F015
:1021C40020EE04F00550D9260650DA2210EE02F073
:1021D4000550E1260650E222DE50E65CE650800A15
:1021E4000B6EDE50800A0B58D8B0FBEF10F0FDEFF9
:1021F40010F006EF11F020EE02F00550D92606503B
:10220400DA22DE2A000EDD221200000EBE6E000E5F
:10221400BF6E000EC06E3F0EC66E700EC76EC868ED
:10222400000E0401006F000E086F000E106F000E08
:10223400016F000E096F000E116F000E026F000E89
:102244000A6F000E126F370E036FF00E0B6F1369D7
:102254003F0E046FF00E0C6F14690D0E0201726FC5
:10226400050E486F120E696F100E106F000E0401F8
:10227400056F000E066F000E076F000E0D6F000E47
:102284000E6F000E0F6F000E156F000E166F000E0E
:10229400176F1200000E0301D96F000EDA6F000EE3
:1022A400DB6F000EDC6F000EDF6F000EE06F000EC0
:1022B400E56F080EE76F000EEC6FEE691F0EEF6F0F
:1022C400000EF06F000EF16F000EF26F000EF46F4F
:1022D400330EF56F070EF66F000EF76F030EF86FEF
:1022E400040EF96F000EFA6F940EF36FB494B59068
:1022F400020E016E270E026E77EC13F0AA80120014
:1023040054C558F555C559F5000E0501796F000EF1
:10231400786FA0EF11F052C542F553C543F5580E3E
:10232400446E050E456E56C546F557C547F594EC03
:102334000CF042500501782743507923610060F581
:10234400F6F4610064F5F7F4F86A0800F550000942
:10235400D8A4AFEF11F0B1EF11F08DEF11F078C503
:1023640052F579C553F51200000E076E000E086E83
:10237400000E096E01A0C1EF11F0C3EF11F0C9EF17
:1023840011F0045007260550082206500922D8905F
:10239400043605360636D890033202320132015033
:1023A40002100310D8A4D9EF11F0DBEF11F0BCEF49
:1023B40011F007C501F508C502F509C503F51200BA
:1023C400000E02018B6F000E8C6F000E8D6F000EDD
:1023D4008E6F000E8F6F000E906F000E916F000EC7
:1023E400926F000E936F000E946F000E956F000EA7
:1023F400966F000E976F000E996F000E9A6F000E85
:102404009B6F000E9E6F000E9C6F010E9F6F12005B
:10241400000E126E000E116E1BEF12F010C503F5C4
:10242400046A0EC505F50FC506F5BCEC10F0114A9B
:10243400122A11500C24D96E12500D20DA6EDF507E
:10244400106E1050D8A429EF12F02BEF12F010EFF9
:1024540012F0120014BE39EF12F0145006E1130406
:10246400D8B037EF12F039EF12F047EF12F013C57E
:1024740015F514C516F5151E161E154A162A15C58A
:1024840013F516C514F54BEF12F013C513F514C567
:1024940014F5120001C503F502C504F554EF12F05A
:1024A400014A022A610004F4D9F4610008F4DAF460
:1024B400DF50D8A460EF12F062EF12F052EF12F086
:1024C4000350015C016E04500258026E1200D69A49
:1024D400B490D680000E016E000E026E72EC13F002
:1024E400B990D682000E016E000E026E6DEC13F0F0
:1024F400BD90D684000E016E000E026E68EC13F0DF
:10250400120061000CF4F8F4610008F4F7F46100BF
:1025140004F4F6F409006100D4F307F5080061003F
:10252400D4F308F50850056E0750016E05C502F591
:102534001200B5900501C051C111D8B4A4EF12F036
:10254400A6EF12F0B2EF12F002D8B2EF12F00500CB
:10255400FA6EC051FD6EC151FE6EFF6AFA50120050
:102564001200040E0301206F000E1F6F000E216F76
:10257400C10E1D6F000E1C6F000E016E000E026E68
:1025840063EC13F0B696BB0E03011E6F12005C0ED3
:102594000501C46F050EC56F000E526E000E536E1A
:1025A4005AC554F55BC555F5C40E566E050E576EE7
:1025B40082EC11F01200F0EC12F04CEC11F080EC13
:1025C40013F063EC10F069EC12F0E2EC11F0B3ECF0
:1025D40012F07CEC13F007EC11F01200600E000115
:1025E400AD6F700EAE6F000EAF6F000EB36F080EBE
:1025F400B16F000EB26F000EB06F000EAC6F120020
:1026040001EE60F1460EEE6AE806FDE15F6A040140
:10261400080E5D6F000E5E6F000E5F6F000105EF28
:102624000FF0AAA018EF13F01AEF13F023EF13F032
:10263400B5A01FEF13F021EF13F023EF13F09BEC81
:1026440012F01100016EB7A22AEF13F02CEF13F071
:1026540025EF13F0610004F4A3F212000301EB511F
:10266400046E036AEA510324016E000E0420026E14
:102674001200026E025024EC13F0120001C5B8F5EA
:1026840002C5B9F5120001C5BCF502C5BDF51200BD
:1026940001C5BEF502C5BFF5120001C5ACF502C502
:1026A400ADF5120001C5BAF502C5BBF5120001C5AE
:1026B400AEF502C5AFF5120001C5AAF502C5ABF52A
:1026C400120001C5B0F502C5B1F5120001C5B2F59D
:1026D40002C5B3F5120001C5B4F502C5B5F5120083
:1026E40001C5B6F502C5B7F5120001C5C0F502C5AE
:1026F400C1F51200F20E0301D76F1200120012008E
:020000040020DA
:10000000FF0FFF0FFF0FFF0FFF0FFF0FFF0FFF0F80
:10001000FF0FFF0FFF0FFF0FFF0FFF0FFF0FFF0F70
:020000040030CA
:0A0000008CFFF7FF9FFFFFFFFFFFDB
:00000001FF
