:020000040000FA
:040000000DEF00F010
:04000800F0EF11F014
:06001800FF00CEEF11F025
:1016000000A81D0000D2230000000034242A241664
:101610002400000000000000000000E422000000A0
:101620000000003E24000054656D702053656E7309
:101630006F7220526573756C74202564200D0A004A
:0116400000A9
:1016420020C538F521C539F522C53AF523C53BF544
:1016520024C53CF525C53DF526C53EF527C53FF514
:101662003FAE02D0010E01D0000E366E376A365000
:101672003710D8B410D03F1E3E1E3D1E3C1E3B1EEE
:101682003A1E391E386C000E39223A223B223C2285
:101692003D223E223F227DAF7E937DBF05D07D510C
:1016A20008E17C05D8B005D0000E336E010E326E13
:1016B20004D07CC532F57DC533F57AC534F57BC5DA
:1016C20035F536503710D8A402D07EA503D03406A3
:1016D200D8A03506000E416E1F0E406E000EA66F9A
:1016E2007CD04006D8A04106870E4024D96E050E54
:1016F2004120DA6E38C501F539C502F53AC503F560
:101702003BC504F53CC505F53DC506F53EC507F5E7
:101712003FC508F50A0E096E000E0A6E000E0B6E2A
:10172200000E0C6E000E0D6E000E0E6E000E0F6E91
:10173200000E106EC0EC0DF001C528F502C529F5AA
:1017420003C52AF504C52BF505C52CF506C52DF5EF
:1017520007C52EF508C52FF528C513F52AC514F5BA
:101762002AEC11F01350300FDF6E3206D8A0330688
:101772003406D8A0350638C501F539C502F53AC593
:1017820003F53BC504F53CC505F53DC506F53EC56B
:1017920007F53FC508F50A0E096E000E0A6E000E27
:1017A2000B6E000E0C6E000E0D6E000E0E6E000E15
:1017B2000F6E000E106E1CEC0DF001C538F502C55F
:1017C20039F503C53AF504C53BF505C53CF506C533
:1017D2003DF507C53EF508C53FF541BE20D0415055
:1017E20003E14004D8A01BD0385039103A103B1006
:1017F2003C103D103E103F10D8A473D733BE05D025
:10180200335002E13204D8B06CD735BE08D035501F
:1018120003E13404D8A003D005017EB362D7365069
:101822003710D8A403D005017EA518D04006D8A051
:10183200410636503710D8A404D0000E316E2B0E5C
:1018420003D0000E316E2D0E306E870E4024D96EFD
:10185200050E4120DA6E6100C0F4DFF41EC513F5F7
:101862001FC514F5870E4024156E050E4120166E15
:1018720034C517F535C518F581EC0FF013C51EF503
:1018820014C51FF51200610010F5D9F4610014F5BA
:10189200DAF4DFC4F6F4160EF76EF86A0800F550B3
:1018A200250AD8A4ABD0610010F5D9F4610014F573
:1018B200DAF4DF2A000E05017B6F000E7A6F7AC51B
:1018C2007EF57BC57FF57C697D69610010F5D9F4F1
:1018D200610014F5DAF4DFC4F6F4160EF76EF86A56
:1018E2000800F550640AD8B410D0610010F5D9F49C
:1018F200610014F5DAF4DFC4F6F4160EF76EF86A36
:101902000800F550690AD8A447D0610010F5D9F44F
:10191200610014F5DAF4DF2A610018F5D9F46100E8
:101922001CF5DAF461007CF348F5020EDE26610054
:101932007CF349F5000EDD22610020F5D9F4610047
:1019420024F5DAF4610078F34AF5610074F34BF59B
:10195200000E4BBEFF0E4C6E4D6E4E6E4F6E506EB5
:10196200516E42C51EF543C51FF54AC520F54BC54C
:1019720021F54CC522F54DC523F54EC524F54FC5BD
:1019820025F550C526F551C527F521EC0BF01EC5EE
:1019920042F51FC543F51200610010F5D9F461004C
:1019A20014F5DAF4DFC4F6F4160EF76EF86A0800DE
:1019B200F550250AD8A416D0610010F5D9F46100BB
:1019C20014F5DAF4DF2A000E046E250E036E42C50A
:1019D20005F543C506F513EC10F0000E436E010E3B
:1019E200426E1200610010F5D9F4610014F5DAF4C8
:1019F200DF2A000E436E000E426E1200610010F5E7
:101A0200D9F4610014F5DAF4DFC4F6F4160EF76EB9
:101A1200F86A0800F550036E046A42C505F543C52D
:101A220006F513EC10F0610010F5D9F4610014F51D
:101A3200DAF4DF2AD2D7000E126E10AE12D0101EC8
:101A42000F1E0E1E0D1E0C1E0B1E0A1E096C000E12
:101A52000A220B220C220D220E220F221022010E2C
:101A6200126E08AE12D0081E071E061E051E041EA8
:101A7200031E021E016C000E022203220422052212
:101A8200062207220822010E121A21EE13F1070E76
:101A9200DE6AE806FDE209500A100B100C100D1068
:101AA2000E100F101010D8B446D0010E116E0AD0CD
:101AB200D89009360A360B360C360D360E360F36EE
:101AC2001036112A10AEF4D7D890133614361536C4
:101AD20016361736183619361A360950015C0A506E
:101AE20002580B5003580C5004580D5005580E5014
:101AF20006580F50075810500858D8A011D0095056
:101B0200015E0A50025A0B50035A0C50045A0D50EF
:101B1200055A0E50065A0F50075A1050085A138091
:101B2200D89010320F320E320D320C320B320A3292
:101B32000932112EC9D71250D8B410D01A1E191E4C
:101B4200181E171E161E151E141E136C000E1422CC
:101B5200152216221722182219221A2213C501F55C
:101B620014C502F515C503F516C504F517C505F527
:101B720018C506F519C507F51AC508F51200000EB5
:101B8200126E08AE12D0081E071E061E051E041E87
:101B9200031E021E016C000E0222032204220522F1
:101BA200062207220822010E126E10AE10D0101E5D
:101BB2000F1E0E1E0D1E0C1E0B1E0A1E096C000EA1
:101BC2000A220B220C220D220E220F221022095071
:101BD2000A100B100C100D100E100F101010D8B4AC
:101BE2003CD0010E116E0AD0D89009360A360B3657
:101BF2000C360D360E360F361036112A10AEF4D7CB
:101C02000950015C0A5002580B5003580C500458FA
:101C12000D5005580E5006580F50075810500858CE
:101C2200D8A010D00950015E0A50025A0B50035A34
:101C32000C50045A0D50055A0E50065A0F50075AAE
:101C42001050085AD89010320F320E320D320C3228
:101C52000B320A320932112ED3D71250D8B410D017
:101C6200081E071E061E051E041E031E021E016C10
:101C7200000E022203220422052206220722082243
:101C820001C501F502C502F503C503F504C504F556
:101C920005C505F506C506F507C507F508C508F526
:101CA200120087EC11F02A0E016E000E026E2C0E4D
:101CB200036E000E046E43EC11F001C5A9F502C5D6
:101CC200AAF52E0E016E000E026E2C0E036E000E91
:101CD200046E43EC11F001C5A7F502C5A8F5D68E36
:101CE2003C0E0301EC6F030000F0DEEC11F001C5C5
:101CF200C6F502C5C7F5C6C501F5C7C502F5036A33
:101D0200A9C504F5AAC505F5066A05BE0606D2EC04
:101D120010F001C5C8F502C5C9F503C5CAF5C8C5A5
:101D220001F5C9C502F5CAC503F5000E046E010E20
:101D3200056E000E066E2DEC0FF001C5C8F502C54A
:101D4200C9F503C5CAF5A7C5C3F5A8C5C4F50501FC
:101D5200C56BC4BFC569C851C325C86FC951C42169
:101D6200C96FCA51C521CA6FC8C501F5C9C502F5F7
:101D7200CAC503F50A0E046E000E056E000E066E4D
:101D82002DEC0FF001C5C8F502C5C9F503C5CAF5AA
:101D9200270E586EC8C559F5C9C55AF5CAC55BF5AF
:101DA200ACEC11F0A0D7AC90000E016E000E026EEA
:101DB20006EC12F0AC92000E016E000E026E01EC07
:101DC20012F0AC94000E016E000E026E10EC12F0D6
:101DD200AC96000E016E000E026EFCEC11F0000ECD
:101DE2000201A16F000EA26F000EA36F000EA46F7E
:101DF200000EA56F000EA66F000EA76F000EA86F53
:101E0200000EA96F000EAA6F300EAB6F800EAC6F82
:101E1200000EAD6FCF0EAE6F000EAF6F000EB06F43
:101E2200000EB16F000EB26F000EB36F000E016EA6
:101E3200000E026E15EC12F0000E016E000E026E24
:101E42000BEC12F0000E016E000E026E1AEC12F094
:101E5200000E0501806F1200000E086E06AE08D05B
:101E6200061E051E046C000E05220622010E086ED7
:101E720003AE08D0031E021E016C000E02220322D2
:101E8200010E081A000E096E000E0A6E000E0B6E8D
:101E9200045005100610D8B423D0010E076E05D0E9
:101EA200D890043605360636072A06AEF9D7D890FA
:101EB20009360A360B360450015C055002580650AA
:101EC2000358D8A007D00450015E0550025A0650AC
:101ED200035A0980D890063205320432072EE7D71A
:101EE2000850D8B406D00B1E0A1E096C000E0A2236
:101EF2000B2209C501F50AC502F50BC503F512004F
:101F020005017EA10AD015C50CF516C50DF513C540
:101F12000EF514C50FF5F4EC10F018BE05D017C578
:101F22001CF518C51DF504D0000E1D6E000E1C6EAA
:101F3200000E1B6E000E1A6E0CD0000E046E200EE8
:101F4200036E13C505F514C506F513EC10F01A4A15
:101F52001B2A1C501A5C1B50800A196E1D50800AE5
:101F62001958D8A0EAD705017EB10AD015C50CF5DB
:101F720016C50DF513C50EF514C50FF5F4EC10F0EA
:101F820015C501F516C502F55BEC11F01C500124D4
:101F9200136E1D500220146E1200000EBE6E000E53
:101FA200BF6E000EC06E3F0EC66E700EC76EC86862
:101FB200000E0401006F000E086F000E106F000E7D
:101FC200016F000E096F000E116F000E026F000EFE
:101FD2000A6F000E126F370E036FF00E0B6F13694C
:101FE2003F0E046FF00E0C6F14690D0E0201726F3A
:101FF200050E486F120E696F100E106F000E04016D
:10200200056F000E066F000E076F000E0D6F000EBB
:102012000E6F000E0F6F000E156F000E166F000E82
:10202200176F120005500610D8B404D005500610E0
:10203200D8A404D00350F7EC11F0120020EE04F003
:102042000550D9260650DA22DE50DE10D8B416D05A
:1020520020EE04F00550D9260650DA2210EE02F0E6
:102062000550E1260650E222DE50E65CE650800A88
:102072000B6EDE50800A0B58D8B0120020EE02F030
:102082000550D9260650DA22DE2A000EDD22120081
:10209200000E0301D96F000EDA6F000EDB6F000E27
:1020A200DC6F000EDF6F000EE06F000EE56F080EB2
:1020B200E76F000EEC6FEE691F0EEF6F000EF06F10
:1020C200000EF16F000EF26F000EF46F330EF56F1B
:1020D200070EF66F000EF76F030EF86F040EF96F1E
:1020E200000EFA6F940EF36FB494B590780E016EF1
:1020F200240E026E33EC12F0AA80120054C557F57A
:10210200000E0501796F000E786F13D052C542F5AB
:1021120053C543F5570E446E050E456E55C546F53B
:1021220056C547F544EC0CF0425005017827435060
:10213200792361005CF5F6F4160EF76EF86A080072
:10214200F5500009D8A4E2D778C552F579C553F500
:102152001200000E02018B6F000E8C6F000E8D6F4D
:10216200000E8E6F000E8F6F000E906F000E916F3B
:10217200000E926F000E936F000E946F000E956F1B
:10218200000E966F000E976F000E996F000E9A6FF9
:10219200000E9B6F000E9E6F000E9C6F010E9F6FD4
:1021A2001200000E076E000E086E000E096E01A0EE
:1021B20006D0045007260550082206500922D8905E
:1021C200043605360636D890033202320132015007
:1021D20002100310D8A4EBD707C501F508C502F514
:1021E20009C503F51200000E126E000E116E0BD01F
:1021F20010C503F5046A0EC505F50FC506F513EC07
:1022020010F0114A122A11500C24D96E12500D20CE
:10221200DA6EDF50106E1050D8B41200E9D7D69A99
:10222200B490D680000E016E000E026E2EEC12F0FB
:10223200B990D682000E016E000E026E29EC12F0E9
:10224200BD90D684000E016E000E026E24EC12F0D8
:10225200120014BE05D0145010E11304D8B00DD0F2
:1022620013C515F514C516F5151E161E154A162AA0
:1022720015C513F516C514F5120013C513F514C5CB
:1022820014F5120061000CF4F8F4610008F4F7F49C
:10229200610004F4F6F409006100D4F307F50800C4
:1022A2006100D4F308F50850056E0750016E05C5AC
:1022B20002F5120001C503F502C504F502D0014A78
:1022C200022A610004F4D9F4610008F4DAF4DF5060
:1022D200D8A4F5D70350015C016E04500258026E77
:1022E2001200040E0301206F000E1F6F000E216FFB
:1022F200C10E1D6F000E1C6F000E016E000E026EED
:102302001FEC12F0B696BB0E1E6F12009AEC11F083
:1023120049EC10F03BEC12F0D4EC0EF010EC11F0A2
:10232200AAEC10F072EC11F038EC12F0CEEC0FF0D7
:102332001200600E0001AD6F700EAE6F000EAF6F37
:10234200000EB36F080EB16F000EB26F000EB06FC9
:10235200000EAC6F1200590E5E6E050E5F6E000E1F
:10236200526E000E536E58C554F55E0E556E050E34
:10237200566E7FEC10F01200B5900501C151C211EA
:10238200D8B4120001D812000500FA6EC151FD6ED8
:10239200C251FE6EFF6AFA50120001EE60F1470E62
:1023A200EE6AE806FDE10401080E5D6F000E5E6F45
:1023B200000E5F6F000152EF0EF00301EB51046E4D
:1023C200036AEA510324016E000E0420026E120019
:1023D200016EB7A2FED7610004F4A3F21200AAA014
:1023E2001100B5A01100BDEC11F01100026E0250F7
:1023F200E9EC11F0120001C5B9F502C5BAF51200F7
:1024020001C5BDF502C5BEF5120001C5BFF502C585
:10241200C0F5120001C5ADF502C5AEF5120001C549
:10242200BBF502C5BCF5120001C5AFF502C5B0F59A
:10243200120001C5ABF502C5ACF5120001C5B1F53C
:1024420002C5B2F5120001C5B3F502C5B4F512001A
:1024520001C5B5F502C5B6F5120001C5B7F502C54D
:10246200B8F5120001C5C1F502C5C2F51200F20E9F
:08247200D76F120012001200E6
:020000040020DA
:10000000FF0FFF0FFF0FFF0FFF0FFF0FFF0FFF0F80
:10001000FF0FFF0FFF0FFF0FFF0FFF0FFF0FFF0F70
:020000040030CA
:0A0000008CFFF7FF9FFFFFFFFFFFDB
:00000001FF
