:020000040000FA
:040000000DEF00F010
:0400080012EF13F0F0
:06001800FF0001EF13F0F0
:1016000000C4200000462600000000BA26B0269C38
:10161000260000000000000000000064250000001B
:10162000000000C426000054656D702053656E7381
:101630006F7220526573756C74202564200D0A004A
:0116400000A9
:1016420020C538F521C539F522C53AF523C53BF544
:1016520024C53CF525C53DF526C53EF527C53FF514
:101662003FBE36EF0BF039EF0BF0010E3AEF0BF005
:10167200000E366E376A36503710D8B443EF0BF08F
:1016820045EF0BF055EF0BF03F1E3E1E3D1E3C1E7C
:101692003B1E3A1E391E386C000E39223A223B227A
:1016A2003C223D223E223F2205017DBF5BEF0BF033
:1016B2005DEF0BF05EEF0BF07E937DBF6BEF0BF0F7
:1016C2007D5106E17C05D8B069EF0BF06BEF0BF0B2
:1016D20071EF0BF0000E336E010E326E75EF0BF0F0
:1016E2007CC532F57DC533F57AC534F57BC535F554
:1016F20036503710D8A480EF0BF082EF0BF089EF51
:101702000BF07EA587EF0BF089EF0BF08CEF0BF05F
:101712003406D8A03506000E416E1F0E406E000E34
:10172200A56F10EF0CF04006D8A04106860E4024AB
:10173200D96E050E4120DA6E38C501F539C502F5BC
:101742003AC503F53BC504F53CC505F53DC506F5AF
:101752003EC507F53FC508F50A0E096E000E0A6E72
:10176200000E0B6E000E0C6E000E0D6E000E0E6E55
:10177200000E0F6E000E106E52EC0EF001C528F531
:1017820002C529F503C52AF504C52BF505C52CF5B7
:1017920006C52DF507C52EF508C52FF528C513F585
:1017A2002AC514F52BEC12F01350300FDF6E3206FF
:1017B200D8A033063406D8A0350638C501F539C598
:1017C20002F53AC503F53BC504F53CC505F53DC533
:1017D20006F53EC507F53FC508F50A0E096E000E6F
:1017E2000A6E000E0B6E000E0C6E000E0D6E000ED9
:1017F2000E6E000E0F6E000E106E8EEC0DF001C517
:1018020038F502C539F503C53AF504C53BF505C5FA
:101812003CF506C53DF507C53EF508C53FF541BE99
:101822001BEF0CF0415008E14004D8A01BEF0CF074
:101832001DEF0CF04EEF0CF0385039103A103B10FF
:101842003C103D103E103F10D8A42AEF0CF02CEFB4
:101852000CF094EF0BF033BE39EF0CF0335006E18D
:101862003204D8B037EF0CF039EF0CF094EF0BF0F4
:1018720035BE44EF0CF0355008E13404D8A044EFF3
:101882000CF046EF0CF04EEF0CF005017EB34CEF7E
:101892000CF04EEF0CF094EF0BF036503710D8A44A
:1018A20055EF0CF057EF0CF05FEF0CF005017EA541
:1018B2005DEF0CF05FEF0CF07EEF0CF04006D8A06D
:1018C200410636503710D8A469EF0CF06BEF0CF0DC
:1018D20071EF0CF0000E316E2B0E306E75EF0CF0C6
:1018E200000E316E2D0E306E860E4024D96E050E1E
:1018F2004120DA6E6100C0F4DFF41EC513F51FC586
:1019020014F5860E4024156E050E4120166E34C560
:1019120017F535C518F5FFEC0FF013C51EF514C504
:101922001FF51200610010F5D9F4610014F5DAF424
:10193200DEC4F6F4DDC4F7F4F86A0800F550250AAF
:10194200D8A4A6EF0CF0A8EF0CF06DEF0DF061003B
:1019520010F5D9F4610014F5DAF4DE2A000EDD2266
:10196200000E05017B6F000E7A6F7AC57EF57BC58E
:101972007FF57C697D69610010F5D9F4610014F589
:10198200DAF4DEC4F6F4DDC4F7F4F86A0800F550C0
:10199200640AD8B4CFEF0CF0D1EF0CF0E6EF0CF004
:1019A200610010F5D9F4610014F5DAF4DEC4F6F43E
:1019B200DDC4F7F4F86A0800F550690AD8A4E4EF28
:1019C2000CF0E6EF0CF030EF0DF0610010F5D9F4F9
:1019D200610014F5DAF4DE2A000EDD22610018F54A
:1019E200D9F461001CF5DAF461007CF348F5020ECB
:1019F200DE2661007CF349F5000EDD22610020F550
:101A0200D9F4610024F5DAF4610078F34AF5610053
:101A120074F34BF5000E4BBEFF0E4C6E4D6E4E6EC8
:101A22004F6E506E516E42C51EF543C51FF54AC535
:101A320020F54BC521F54CC522F54DC523F54EC504
:101A420024F54FC525F550C526F551C527F521ECDE
:101A52000BF01EC542F51FC543F58DEF0DF0610079
:101A620010F5D9F4610014F5DAF4DEC4F6F4DDC43D
:101A7200F7F4F86A0800F550250AD8A443EF0DF0F0
:101A820045EF0DF05EEF0DF0610010F5D9F4610045
:101A920014F5DAF4DE2A000EDD22000E046E250EA5
:101AA200036E42C505F543C506F5BBEC10F0000E0A
:101AB200436E010E426E8DEF0DF0610010F5D9F408
:101AC200610014F5DAF4DE2A000EDD22000E436E08
:101AD200000E426E8DEF0DF0610010F5D9F4610039
:101AE20014F5DAF4DEC4F6F4DDC4F7F4F86A08009B
:101AF200F550036E046A42C505F543C506F5BBEC15
:101B020010F0610010F5D9F4610014F5DAF4DE2A60
:101B1200000EDD2258EF0DF01200000E126E10BE04
:101B220097EF0DF095EF0DF0A9EF0DF0101E0F1EBF
:101B32000E1E0D1E0C1E0B1E0A1E096C000E0A2222
:101B42000B220C220D220E220F221022010E126EE7
:101B520008BEB0EF0DF0AEEF0DF0C2EF0DF0081EB3
:101B6200071E061E051E041E031E021E016C000E29
:101B72000222032204220522062207220822010E43
:101B8200121A21EE13F1070EDE6AE806FDE2095091
:101B92000A100B100C100D100E100F101010D8B4EC
:101BA200D5EF0DF0D7EF0DF029EF0EF0010E116E0B
:101BB200E5EF0DF0D89009360A360B360C360D36A5
:101BC2000E360F361036112A10AEEAEF0DF0ECEF9A
:101BD2000DF0DBEF0DF0D8901336143615361636AD
:101BE2001736183619361A360950015C0A5002584F
:101BF2000B5003580C5004580D5005580E500658FF
:101C02000F50075810500858D8A00AEF0EF00CEFEA
:101C12000EF01DEF0EF00950015E0A50025A0B50F1
:101C2200035A0C50045A0D50055A0E50065A0F50C2
:101C3200075A1050085A1380D89010320F320E32C1
:101C42000D320C320B320A320932112EECEF0DF04A
:101C52001250D8B42FEF0EF031EF0EF041EF0EF02C
:101C62001A1E191E181E171E161E151E141E136C80
:101C7200000E1422152216221722182219221A22C5
:101C820013C501F514C502F515C503F516C504F50E
:101C920017C505F518C506F519C507F51AC508F5DE
:101CA2001200000E126E08BE5BEF0EF059EF0EF03E
:101CB2006DEF0EF0081E071E061E051E041E031EF3
:101CC200021E016C000E02220322042205220622B9
:101CD20007220822010E126E10BE74EF0EF072EF90
:101CE2000EF084EF0EF0101E0F1E0E1E0D1E0C1EA7
:101CF2000B1E0A1E096C000E0A220B220C220D2258
:101D02000E220F22102209500A100B100C100D1077
:101D12000E100F101010D8B491EF0EF093EF0EF0DA
:101D2200DBEF0EF0010E116EA1EF0EF0D890093626
:101D32000A360B360C360D360E360F361036112A91
:101D420010AEA6EF0EF0A8EF0EF097EF0EF00950CE
:101D5200015C0A5002580B5003580C5004580D50A5
:101D620005580E5006580F50075810500858D8A062
:101D7200BDEF0EF0BFEF0EF0CFEF0EF00950015E97
:101D82000A50025A0B50035A0C50045A0D50055A6D
:101D92000E50065A0F50075A1050085AD890103257
:101DA2000F320E320D320C320B320A320932112E40
:101DB200A8EF0EF01250D8B4E1EF0EF0E3EF0EF000
:101DC200F3EF0EF0081E071E061E051E041E031E5C
:101DD200021E016C000E02220322042205220622A8
:101DE2000722082201C501F502C502F503C503F564
:101DF20004C504F505C505F506C506F507C507F5CD
:101E020008C508F51200DCEC12F02A0E016E000E75
:101E1200026E2C0E036E000E046E82EC12F001C5EF
:101E2200A8F502C5A9F52E0E016E000E026E2C0E4B
:101E3200036E000E046E82EC12F001C5A6F502C517
:101E4200A7F5D68E3C0E0301EC6F030000F02FECD9
:101E520013F001C5C9F502C5CAF5C9C501F5CAC560
:101E620002F5036AA8C504F5A9C505F5066A05BE0B
:101E72000606B5EC11F001C5CBF502C5CCF503C5DC
:101E8200CDF5CBC501F5CCC502F5CDC503F5000EE8
:101E9200046E010E056E000E066E8BEC0FF001C58E
:101EA200CBF502C5CCF503C5CDF5A6C5C6F5A7C5CC
:101EB200C7F50501C86BC7BFC869CB51C625CB6F33
:101EC200CC51C721CC6FCD51C821CD6FCBC501F507
:101ED200CCC502F5CDC503F50A0E046E000E056EE3
:101EE200000E066E8BEC0FF001C5CBF502C5CCF5EA
:101EF20003C5CDF5270E5A6E160E5B6ECBC55CF58B
:101F0200CCC55DF5CDC55EF5C8EC12F026EF0FF03D
:101F12000DEF00F0000E086E06BE94EF0FF092EF88
:101F22000FF09CEF0FF0061E051E046C000E05223A
:101F32000622010E086E03BEA3EF0FF0A1EF0FF011
:101F4200ABEF0FF0031E021E016C000E02220322F1
:101F5200010E081A000E096E000E0A6E000E0B6EBC
:101F6200045005100610D8B4B9EF0FF0BBEF0FF014
:101F7200EAEF0FF0010E076EC4EF0FF0D8900436AF
:101F820005360636072A06AEC9EF0FF0CBEF0FF083
:101F9200BFEF0FF0D89009360A360B360450015CB9
:101FA2000550025806500358D8A0DAEF0FF0DCEFC4
:101FB2000FF0E3EF0FF00450015E0550025A065095
:101FC200035A0980D890063205320432072ECBEF2D
:101FD2000FF00850D8B4F0EF0FF0F2EF0FF0F8EF77
:101FE2000FF00B1E0A1E096C000E0A220B2209C5F5
:101FF20001F50AC502F50BC503F5120005017EA124
:1020020005EF10F007EF10F011EF10F015C50CF509
:1020120016C50DF513C50EF514C50FF509EC12F032
:1020220018BE16EF10F018EF10F01EEF10F017C5E3
:102032001CF518C51DF522EF10F0000E1D6E000EE6
:102042001C6E000E1B6E000E1A6E34EF10F0000EA6
:10205200046E200E036E13C505F514C506F5BBEC20
:1020620010F01A4A1B2A1C501A5C1B50800A196E67
:102072001D50800A1958D8A041EF10F043EF10F01C
:1020820028EF10F005017EB149EF10F04BEF10F090
:1020920055EF10F015C50CF516C50DF513C50EF567
:1020A20014C50FF509EC12F015C501F516C502F5B8
:1020B2004BEC12F01C500124136E1D500220146EC2
:1020C2001200AC90000E016E000E026E49EC13F08D
:1020D200AC92000E016E000E026E44EC13F0AC9452
:1020E200000E016E000E026E53EC13F0AC96000E61
:1020F200016E000E026E3FEC13F0000E0201A16FA2
:10210200000EA26F000EA36F000EA46F000EA56F4B
:10211200000EA66F000EA76F000EA86F000EA96F2B
:10212200000EAA6F300EAB6F800EAC6F000EAD6F5B
:10213200CF0EAE6F000EAF6F000EB06F000EB16F1C
:10214200000EB26F000EB36F000E016E000E026E33
:1021520058EC13F0000E016E000E026E4EEC13F0FE
:10216200000E016E000E026E5DEC13F0000E050112
:10217200806F120005500610D8B4C2EF10F0C4EF01
:1021820010F0CDEF10F005500610D8A4CBEF10F0F0
:10219200CDEF10F0D2EF10F003503AEC13F005EF50
:1021A20011F020EE04F00550D9260650DA22DE5056
:1021B200DE10D8B4DFEF10F0E1EF10F0FCEF10F01A
:1021C20020EE04F00550D9260650DA2210EE02F075
:1021D2000550E1260650E222DE50E65CE650800A17
:1021E2000B6EDE50800A0B58D8B0FAEF10F0FCEFFD
:1021F20010F005EF11F020EE02F00550D92606503E
:10220200DA22DE2A000EDD221200000EBE6E000E61
:10221200BF6E000EC06E3F0EC66E700EC76EC868EF
:10222200000E0401006F000E086F000E106F000E0A
:10223200016F000E096F000E116F000E026F000E8B
:102242000A6F000E126F370E036FF00E0B6F1369D9
:102252003F0E046FF00E0C6F14690D0E0201726FC7
:10226200050E486F120E696F100E106F000E0401FA
:10227200056F000E066F000E076F000E0D6F000E49
:102282000E6F000E0F6F000E156F000E166F000E10
:10229200176F1200000E0301D96F000EDA6F000EE5
:1022A200DB6F000EDC6F000EDF6F000EE06F000EC2
:1022B200E56F080EE76F000EEC6FEE691F0EEF6F11
:1022C200000EF06F000EF16F000EF26F000EF46F51
:1022D200330EF56F070EF66F000EF76F030EF86FF1
:1022E200040EF96F000EFA6F940EF36FB494B5906A
:1022F200000E016E270E026E76EC13F0AA80120019
:1023020054C558F555C559F5000E0501796F000EF3
:10231200786F9FEF11F052C542F553C543F5580E41
:10232200446E050E456E56C546F557C547F593EC06
:102332000CF042500501782743507923610060F583
:10234200F6F4610064F5F7F4F86A0800F550000944
:10235200D8A4AEEF11F0B0EF11F08CEF11F078C508
:1023620052F579C553F51200000E076E000E086E85
:10237200000E096E01A0C0EF11F0C2EF11F0C8EF1C
:1023820011F0045007260550082206500922D89061
:10239200043605360636D890033202320132015035
:1023A20002100310D8A4D8EF11F0DAEF11F0BBEF4E
:1023B20011F007C501F508C502F509C503F51200BC
:1023C200000E02018B6F000E8C6F000E8D6F000EDF
:1023D2008E6F000E8F6F000E906F000E916F000EC9
:1023E200926F000E936F000E946F000E956F000EA9
:1023F200966F000E976F000E996F000E9A6F000E87
:102402009B6F000E9E6F000E9C6F010E9F6F12005D
:10241200000E126E000E116E1AEF12F010C503F5C7
:10242200046A0EC505F50FC506F5BBEC10F0114A9E
:10243200122A11500C24D96E12500D20DA6EDF5080
:10244200106E1050D8A428EF12F02AEF12F00FEFFE
:1024520012F0120014BE38EF12F0145006E1130409
:10246200D8B036EF12F038EF12F046EF12F013C583
:1024720015F514C516F5151E161E154A162A15C58C
:1024820013F516C514F54AEF12F013C513F514C56A
:1024920014F5120001C503F502C504F553EF12F05D
:1024A200014A022A610004F4D9F4610008F4DAF462
:1024B200DF50D8A45FEF12F061EF12F051EF12F08B
:1024C2000350015C016E04500258026E1200D69A4B
:1024D200B490D680000E016E000E026E71EC13F005
:1024E200B990D682000E016E000E026E6CEC13F0F3
:1024F200BD90D684000E016E000E026E67EC13F0E2
:10250200120061000CF4F8F4610008F4F7F46100C1
:1025120004F4F6F409006100D4F307F50800610041
:10252200D4F308F50850056E0750016E05C502F593
:102532001200B5900501C051C111D8B4A3EF12F039
:10254200A5EF12F0B1EF12F002D8B1EF12F00500D0
:10255200FA6EC051FD6EC151FE6EFF6AFA50120052
:102562001200040E0301206F000E1F6F000E216F78
:10257200C10E1D6F000E1C6F000E016E000E026E6A
:1025820062EC13F0B696BB0E03011E6F12005C0ED6
:102592000501C46F050EC56F000E526E000E536E1C
:1025A2005AC554F55BC555F5C40E566E050E576EE9
:1025B20081EC11F01200EFEC12F04BEC11F07FEC19
:1025C20013F062EC10F068EC12F0E1EC11F0B2ECF6
:1025D20012F07BEC13F006EC11F01200600E000119
:1025E200AD6F700EAE6F000EAF6F000EB36F080EC0
:1025F200B16F000EB26F000EB06F000EAC6F120022
:1026020001EE60F1460EEE6AE806FDE15F6A040142
:10261200080E5D6F000E5E6F000E5F6F000104EF2B
:102622000FF0AAA017EF13F019EF13F022EF13F037
:10263200B5A01EEF13F020EF13F022EF13F09AEC87
:1026420012F01100016EB7A229EF13F02BEF13F075
:1026520024EF13F0610004F4A3F212000301EB5122
:10266200046E036AEA510324016E000E0420026E16
:102672001200026E025023EC13F0120001C5B8F5ED
:1026820002C5B9F5120001C5BCF502C5BDF51200BF
:1026920001C5BEF502C5BFF5120001C5ACF502C504
:1026A200ADF5120001C5BAF502C5BBF5120001C5B0
:1026B200AEF502C5AFF5120001C5AAF502C5ABF52C
:1026C200120001C5B0F502C5B1F5120001C5B2F59F
:1026D20002C5B3F5120001C5B4F502C5B5F5120085
:1026E20001C5B6F502C5B7F5120001C5C0F502C5B0
:1026F200C1F51200F20E0301D76F12001200120090
:020000040020DA
:10000000FF0FFF0FFF0FFF0FFF0FFF0FFF0FFF0F80
:10001000FF0FFF0FFF0FFF0FFF0FFF0FFF0FFF0F70
:020000040030CA
:0A0000008CFFF7FF9FFFFFFFFFFFDB
:00000001FF
